{
  "contractName": "DStorage",
  "abi": [
    {
      "inputs": [],
      "payable": false,
      "stateMutability": "nonpayable",
      "type": "constructor"
    },
    {
      "anonymous": false,
      "inputs": [
        {
          "indexed": false,
          "internalType": "uint256",
          "name": "fileId",
          "type": "uint256"
        },
        {
          "indexed": false,
          "internalType": "string",
          "name": "fileHash",
          "type": "string"
        },
        {
          "indexed": false,
          "internalType": "uint256",
          "name": "fileSize",
          "type": "uint256"
        },
        {
          "indexed": false,
          "internalType": "string",
          "name": "fileType",
          "type": "string"
        },
        {
          "indexed": false,
          "internalType": "string",
          "name": "fileName",
          "type": "string"
        },
        {
          "indexed": false,
          "internalType": "string",
          "name": "fileDescription",
          "type": "string"
        },
        {
          "indexed": false,
          "internalType": "uint256",
          "name": "uploadTime",
          "type": "uint256"
        },
        {
          "indexed": false,
          "internalType": "bool",
          "name": "isPublic",
          "type": "bool"
        },
        {
          "indexed": false,
          "internalType": "bool",
          "name": "isPermanent",
          "type": "bool"
        },
        {
          "indexed": false,
          "internalType": "address payable",
          "name": "uploader",
          "type": "address"
        },
        {
          "indexed": false,
          "internalType": "uint256",
          "name": "deletionTime",
          "type": "uint256"
        }
      ],
      "name": "FileDeleted",
      "type": "event"
    },
    {
      "anonymous": false,
      "inputs": [
        {
          "indexed": false,
          "internalType": "uint256",
          "name": "fileId",
          "type": "uint256"
        },
        {
          "indexed": false,
          "internalType": "string",
          "name": "fileHash",
          "type": "string"
        },
        {
          "indexed": false,
          "internalType": "uint256",
          "name": "fileSize",
          "type": "uint256"
        },
        {
          "indexed": false,
          "internalType": "string",
          "name": "fileType",
          "type": "string"
        },
        {
          "indexed": false,
          "internalType": "string",
          "name": "fileName",
          "type": "string"
        },
        {
          "indexed": false,
          "internalType": "string",
          "name": "fileDescription",
          "type": "string"
        },
        {
          "indexed": false,
          "internalType": "uint256",
          "name": "uploadTime",
          "type": "uint256"
        },
        {
          "indexed": false,
          "internalType": "bool",
          "name": "isPublic",
          "type": "bool"
        },
        {
          "indexed": false,
          "internalType": "bool",
          "name": "isPermanent",
          "type": "bool"
        },
        {
          "indexed": false,
          "internalType": "address payable",
          "name": "uploader",
          "type": "address"
        }
      ],
      "name": "FileUploaded",
      "type": "event"
    },
    {
      "constant": true,
      "inputs": [
        {
          "internalType": "uint256",
          "name": "",
          "type": "uint256"
        },
        {
          "internalType": "address",
          "name": "",
          "type": "address"
        }
      ],
      "name": "allowances",
      "outputs": [
        {
          "internalType": "bool",
          "name": "viewPerm",
          "type": "bool"
        },
        {
          "internalType": "bool",
          "name": "deletePerm",
          "type": "bool"
        }
      ],
      "payable": false,
      "stateMutability": "view",
      "type": "function"
    },
    {
      "constant": true,
      "inputs": [],
      "name": "fileCount",
      "outputs": [
        {
          "internalType": "uint256",
          "name": "",
          "type": "uint256"
        }
      ],
      "payable": false,
      "stateMutability": "view",
      "type": "function"
    },
    {
      "constant": true,
      "inputs": [
        {
          "internalType": "uint256",
          "name": "",
          "type": "uint256"
        }
      ],
      "name": "files",
      "outputs": [
        {
          "internalType": "uint256",
          "name": "fileId",
          "type": "uint256"
        },
        {
          "internalType": "string",
          "name": "fileHash",
          "type": "string"
        },
        {
          "internalType": "uint256",
          "name": "fileSize",
          "type": "uint256"
        },
        {
          "internalType": "string",
          "name": "fileType",
          "type": "string"
        },
        {
          "internalType": "string",
          "name": "fileName",
          "type": "string"
        },
        {
          "internalType": "string",
          "name": "fileDescription",
          "type": "string"
        },
        {
          "internalType": "uint256",
          "name": "uploadTime",
          "type": "uint256"
        },
        {
          "internalType": "bool",
          "name": "isPublic",
          "type": "bool"
        },
        {
          "internalType": "bool",
          "name": "isPermanent",
          "type": "bool"
        },
        {
          "internalType": "address payable",
          "name": "uploader",
          "type": "address"
        }
      ],
      "payable": false,
      "stateMutability": "view",
      "type": "function"
    },
    {
      "constant": true,
      "inputs": [],
      "name": "name",
      "outputs": [
        {
          "internalType": "string",
          "name": "",
          "type": "string"
        }
      ],
      "payable": false,
      "stateMutability": "view",
      "type": "function"
    },
    {
      "constant": false,
      "inputs": [
        {
          "internalType": "string",
          "name": "_fileHash",
          "type": "string"
        },
        {
          "internalType": "uint256",
          "name": "_fileSize",
          "type": "uint256"
        },
        {
          "internalType": "string",
          "name": "_fileType",
          "type": "string"
        },
        {
          "internalType": "string",
          "name": "_fileName",
          "type": "string"
        },
        {
          "internalType": "string",
          "name": "_fileDescription",
          "type": "string"
        },
        {
          "internalType": "bool",
          "name": "isPublic",
          "type": "bool"
        },
        {
          "internalType": "bool",
          "name": "isPermanent",
          "type": "bool"
        },
        {
          "internalType": "address[]",
          "name": "viewPermissions",
          "type": "address[]"
        },
        {
          "internalType": "address[]",
          "name": "deletePermissions",
          "type": "address[]"
        }
      ],
      "name": "uploadFile",
      "outputs": [],
      "payable": false,
      "stateMutability": "nonpayable",
      "type": "function"
    },
    {
      "constant": false,
      "inputs": [
        {
          "internalType": "uint256",
          "name": "_id",
          "type": "uint256"
        }
      ],
      "name": "deleteFile",
      "outputs": [],
      "payable": false,
      "stateMutability": "nonpayable",
      "type": "function"
    }
  ],
  "bytecode": "0x60806040526040518060400160405280600881526020017f4453746f7261676500000000000000000000000000000000000000000000000081525060009080519060200190620000519291906200006b565b5060006001553480156200006457600080fd5b506200011a565b828054600181600116156101000203166002900490600052602060002090601f016020900481019282601f10620000ae57805160ff1916838001178555620000df565b82800160010185558215620000df579182015b82811115620000de578251825591602001919060010190620000c1565b5b509050620000ee9190620000f2565b5090565b6200011791905b8082111562000113576000816000905550600101620000f9565b5090565b90565b611ab6806200012a6000396000f3fe608060405234801561001057600080fd5b50600436106100625760003560e01c806306fdde031461006757806343953519146100ea578063906a6a6514610108578063c5b42006146104d3578063ec4d320614610501578063f4c714b414610572575b600080fd5b61006f6107bb565b6040518080602001828103825283818151815260200191508051906020019080838360005b838110156100af578082015181840152602081019050610094565b50505050905090810190601f1680156100dc5780820380516001836020036101000a031916815260200191505b509250505060405180910390f35b6100f2610859565b6040518082815260200191505060405180910390f35b6104d1600480360361012081101561011f57600080fd5b810190808035906020019064010000000081111561013c57600080fd5b82018360208201111561014e57600080fd5b8035906020019184600183028401116401000000008311171561017057600080fd5b91908080601f016020809104026020016040519081016040528093929190818152602001838380828437600081840152601f19601f82011690508083019250505050505050919291929080359060200190929190803590602001906401000000008111156101dd57600080fd5b8201836020820111156101ef57600080fd5b8035906020019184600183028401116401000000008311171561021157600080fd5b91908080601f016020809104026020016040519081016040528093929190818152602001838380828437600081840152601f19601f8201169050808301925050505050505091929192908035906020019064010000000081111561027457600080fd5b82018360208201111561028657600080fd5b803590602001918460018302840111640100000000831117156102a857600080fd5b91908080601f016020809104026020016040519081016040528093929190818152602001838380828437600081840152601f19601f8201169050808301925050505050505091929192908035906020019064010000000081111561030b57600080fd5b82018360208201111561031d57600080fd5b8035906020019184600183028401116401000000008311171561033f57600080fd5b91908080601f016020809104026020016040519081016040528093929190818152602001838380828437600081840152601f19601f820116905080830192505050505050509192919290803515159060200190929190803515159060200190929190803590602001906401000000008111156103ba57600080fd5b8201836020820111156103cc57600080fd5b803590602001918460208302840111640100000000831117156103ee57600080fd5b919080806020026020016040519081016040528093929190818152602001838360200280828437600081840152601f19601f8201169050808301925050505050505091929192908035906020019064010000000081111561044e57600080fd5b82018360208201111561046057600080fd5b8035906020019184602083028401116401000000008311171561048257600080fd5b919080806020026020016040519081016040528093929190818152602001838360200280828437600081840152601f19601f82011690508083019250505050505050919291929050505061085f565b005b6104ff600480360360208110156104e957600080fd5b8101908080359060200190929190505050610ce6565b005b61054d6004803603604081101561051757600080fd5b8101908080359060200190929190803573ffffffffffffffffffffffffffffffffffffffff1690602001909291905050506114a5565b6040518083151515158152602001821515151581526020019250505060405180910390f35b61059e6004803603602081101561058857600080fd5b81019080803590602001909291905050506114f0565b604051808b8152602001806020018a815260200180602001806020018060200189815260200188151515158152602001871515151581526020018673ffffffffffffffffffffffffffffffffffffffff1673ffffffffffffffffffffffffffffffffffffffff16815260200185810385528e818151815260200191508051906020019080838360005b83811015610642578082015181840152602081019050610627565b50505050905090810190601f16801561066f5780820380516001836020036101000a031916815260200191505b5085810384528c818151815260200191508051906020019080838360005b838110156106a857808201518184015260208101905061068d565b50505050905090810190601f1680156106d55780820380516001836020036101000a031916815260200191505b5085810383528b818151815260200191508051906020019080838360005b8381101561070e5780820151818401526020810190506106f3565b50505050905090810190601f16801561073b5780820380516001836020036101000a031916815260200191505b5085810382528a818151815260200191508051906020019080838360005b83811015610774578082015181840152602081019050610759565b50505050905090810190601f1680156107a15780820380516001836020036101000a031916815260200191505b509e50505050505050505050505050505060405180910390f35b60008054600181600116156101000203166002900480601f0160208091040260200160405190810160405280929190818152602001828054600181600116156101000203166002900480156108515780601f1061082657610100808354040283529160200191610851565b820191906000526020600020905b81548152906001019060200180831161083457829003601f168201915b505050505081565b60015481565b600073ffffffffffffffffffffffffffffffffffffffff163373ffffffffffffffffffffffffffffffffffffffff16141561089957600080fd5b60008951116108a757600080fd5b60008751116108b557600080fd5b60008651116108c357600080fd5b60008551116108d157600080fd5b600088116108de57600080fd5b60016000815480929190600101919050555060405180610140016040528060015481526020018a8152602001898152602001888152602001878152602001868152602001428152602001851515815260200184151581526020013373ffffffffffffffffffffffffffffffffffffffff1681525060026000600154815260200190815260200160002060008201518160000155602082015181600101908051906020019061098d929190611927565b506040820151816002015560608201518160030190805190602001906109b4929190611927565b5060808201518160040190805190602001906109d1929190611927565b5060a08201518160050190805190602001906109ee929190611927565b5060c0820151816006015560e08201518160070160006101000a81548160ff0219169083151502179055506101008201518160070160016101000a81548160ff0219169083151502179055506101208201518160070160026101000a81548173ffffffffffffffffffffffffffffffffffffffff021916908373ffffffffffffffffffffffffffffffffffffffff160217905550905050610a9260015483836117de565b7f370e7c5d4515e0ac59b44279d989a0bfa2b7b8f3c15a09e82f7e18e66580dd3a6001548a8a8a8a8a428b8b33604051808b8152602001806020018a815260200180602001806020018060200189815260200188151515158152602001871515151581526020018673ffffffffffffffffffffffffffffffffffffffff1673ffffffffffffffffffffffffffffffffffffffff16815260200185810385528e818151815260200191508051906020019080838360005b83811015610b63578082015181840152602081019050610b48565b50505050905090810190601f168015610b905780820380516001836020036101000a031916815260200191505b5085810384528c818151815260200191508051906020019080838360005b83811015610bc9578082015181840152602081019050610bae565b50505050905090810190601f168015610bf65780820380516001836020036101000a031916815260200191505b5085810383528b818151815260200191508051906020019080838360005b83811015610c2f578082015181840152602081019050610c14565b50505050905090810190601f168015610c5c5780820380516001836020036101000a031916815260200191505b5085810382528a818151815260200191508051906020019080838360005b83811015610c95578082015181840152602081019050610c7a565b50505050905090810190601f168015610cc25780820380516001836020036101000a031916815260200191505b509e50505050505050505050505050505060405180910390a1505050505050505050565b80600081118015610cf957506001548111155b610d0257600080fd5b816002600082815260200190815260200160002060070160019054906101000a900460ff1615610d3157600080fd5b82336002600083815260200190815260200160002060070160029054906101000a900473ffffffffffffffffffffffffffffffffffffffff1673ffffffffffffffffffffffffffffffffffffffff168173ffffffffffffffffffffffffffffffffffffffff161480610e075750600115156003600084815260200190815260200160002060008373ffffffffffffffffffffffffffffffffffffffff1673ffffffffffffffffffffffffffffffffffffffff16815260200190815260200160002060000160019054906101000a900460ff161515145b610e1057600080fd5b610e186119a7565b600260008781526020019081526020016000206040518061014001604052908160008201548152602001600182018054600181600116156101000203166002900480601f016020809104026020016040519081016040528092919081815260200182805460018160011615610100020316600290048015610eda5780601f10610eaf57610100808354040283529160200191610eda565b820191906000526020600020905b815481529060010190602001808311610ebd57829003601f168201915b5050505050815260200160028201548152602001600382018054600181600116156101000203166002900480601f016020809104026020016040519081016040528092919081815260200182805460018160011615610100020316600290048015610f865780601f10610f5b57610100808354040283529160200191610f86565b820191906000526020600020905b815481529060010190602001808311610f6957829003601f168201915b50505050508152602001600482018054600181600116156101000203166002900480601f0160208091040260200160405190810160405280929190818152602001828054600181600116156101000203166002900480156110285780601f10610ffd57610100808354040283529160200191611028565b820191906000526020600020905b81548152906001019060200180831161100b57829003601f168201915b50505050508152602001600582018054600181600116156101000203166002900480601f0160208091040260200160405190810160405280929190818152602001828054600181600116156101000203166002900480156110ca5780601f1061109f576101008083540402835291602001916110ca565b820191906000526020600020905b8154815290600101906020018083116110ad57829003601f168201915b50505050508152602001600682015481526020016007820160009054906101000a900460ff161515151581526020016007820160019054906101000a900460ff161515151581526020016007820160029054906101000a900473ffffffffffffffffffffffffffffffffffffffff1673ffffffffffffffffffffffffffffffffffffffff1673ffffffffffffffffffffffffffffffffffffffff16815250509050600260008781526020019081526020016000206000808201600090556001820160006111979190611a14565b60028201600090556003820160006111af9190611a14565b6004820160006111bf9190611a14565b6005820160006111cf9190611a14565b60068201600090556007820160006101000a81549060ff02191690556007820160016101000a81549060ff02191690556007820160026101000a81549073ffffffffffffffffffffffffffffffffffffffff021916905550507fece67d851735837b5e2034e38397466e02232080f95cfcff83f5a889959392028682602001518360400151846060015185608001518660a001518760c001518860e001518961010001518a610120015142604051808c8152602001806020018b81526020018060200180602001806020018a815260200189151515158152602001881515151581526020018773ffffffffffffffffffffffffffffffffffffffff1673ffffffffffffffffffffffffffffffffffffffff16815260200186815260200185810385528f818151815260200191508051906020019080838360005b83811015611324578082015181840152602081019050611309565b50505050905090810190601f1680156113515780820380516001836020036101000a031916815260200191505b5085810384528d818151815260200191508051906020019080838360005b8381101561138a57808201518184015260208101905061136f565b50505050905090810190601f1680156113b75780820380516001836020036101000a031916815260200191505b5085810383528c818151815260200191508051906020019080838360005b838110156113f05780820151818401526020810190506113d5565b50505050905090810190601f16801561141d5780820380516001836020036101000a031916815260200191505b5085810382528b818151815260200191508051906020019080838360005b8381101561145657808201518184015260208101905061143b565b50505050905090810190601f1680156114835780820380516001836020036101000a031916815260200191505b509f5050505050505050505050505050505060405180910390a1505050505050565b6003602052816000526040600020602052806000526040600020600091509150508060000160009054906101000a900460ff16908060000160019054906101000a900460ff16905082565b6002602052806000526040600020600091509050806000015490806001018054600181600116156101000203166002900480601f0160208091040260200160405190810160405280929190818152602001828054600181600116156101000203166002900480156115a25780601f10611577576101008083540402835291602001916115a2565b820191906000526020600020905b81548152906001019060200180831161158557829003601f168201915b505050505090806002015490806003018054600181600116156101000203166002900480601f0160208091040260200160405190810160405280929190818152602001828054600181600116156101000203166002900480156116465780601f1061161b57610100808354040283529160200191611646565b820191906000526020600020905b81548152906001019060200180831161162957829003601f168201915b505050505090806004018054600181600116156101000203166002900480601f0160208091040260200160405190810160405280929190818152602001828054600181600116156101000203166002900480156116e45780601f106116b9576101008083540402835291602001916116e4565b820191906000526020600020905b8154815290600101906020018083116116c757829003601f168201915b505050505090806005018054600181600116156101000203166002900480601f0160208091040260200160405190810160405280929190818152602001828054600181600116156101000203166002900480156117825780601f1061175757610100808354040283529160200191611782565b820191906000526020600020905b81548152906001019060200180831161176557829003601f168201915b5050505050908060060154908060070160009054906101000a900460ff16908060070160019054906101000a900460ff16908060070160029054906101000a900473ffffffffffffffffffffffffffffffffffffffff1690508a565b60008090505b825181101561187f5760008382815181106117fb57fe5b6020026020010151905060016003600087815260200190815260200160002060008373ffffffffffffffffffffffffffffffffffffffff1673ffffffffffffffffffffffffffffffffffffffff16815260200190815260200160002060000160006101000a81548160ff0219169083151502179055505080806001019150506117e4565b5060008090505b815181101561192157600082828151811061189d57fe5b6020026020010151905060016003600087815260200190815260200160002060008373ffffffffffffffffffffffffffffffffffffffff1673ffffffffffffffffffffffffffffffffffffffff16815260200190815260200160002060000160016101000a81548160ff021916908315150217905550508080600101915050611886565b50505050565b828054600181600116156101000203166002900490600052602060002090601f016020900481019282601f1061196857805160ff1916838001178555611996565b82800160010185558215611996579182015b8281111561199557825182559160200191906001019061197a565b5b5090506119a39190611a5c565b5090565b60405180610140016040528060008152602001606081526020016000815260200160608152602001606081526020016060815260200160008152602001600015158152602001600015158152602001600073ffffffffffffffffffffffffffffffffffffffff1681525090565b50805460018160011615610100020316600290046000825580601f10611a3a5750611a59565b601f016020900490600052602060002090810190611a589190611a5c565b5b50565b611a7e91905b80821115611a7a576000816000905550600101611a62565b5090565b9056fea265627a7a72315820f3d76fe275b3f92781d387b46e92c27d136cb1f30e842ba33c117fb808f0571964736f6c63430005100032",
  "source": "pragma solidity ^0.5.0;\r\n\r\ncontract DStorage {\r\n  \r\n  string public name = \"DStorage\";\r\n  uint public fileCount = 0;\r\n  mapping(uint => File) public files;\r\n  mapping(uint => mapping(address => Action)) public allowances;\r\n\r\n  struct File {\r\n    uint fileId;\r\n    string fileHash;\r\n    uint fileSize;\r\n    string fileType;\r\n    string fileName;\r\n    string fileDescription;\r\n    uint uploadTime;\r\n    bool isPublic;\r\n    bool isPermanent;\r\n    address payable uploader;\r\n  }\r\n\r\n  struct Action {\r\n    bool viewPerm;\r\n    bool deletePerm;\r\n  }\r\n\r\n  event FileUploaded (\r\n    uint fileId,\r\n    string fileHash,\r\n    uint fileSize,\r\n    string fileType,\r\n    string fileName,\r\n    string fileDescription,\r\n    uint uploadTime,\r\n    bool isPublic,\r\n    bool isPermanent,\r\n    address payable uploader\r\n  );\r\n\r\n  event FileDeleted (\r\n    uint fileId,\r\n    string fileHash,\r\n    uint fileSize,\r\n    string fileType,\r\n    string fileName,\r\n    string fileDescription,\r\n    uint uploadTime,\r\n    bool isPublic,\r\n    bool isPermanent,\r\n    address payable uploader,\r\n    uint deletionTime\r\n  );\r\n\r\n  constructor() public { }\r\n\r\n  function uploadFile(string memory _fileHash, uint _fileSize, string memory _fileType, string memory _fileName, string memory _fileDescription, bool isPublic, bool isPermanent, address[] memory viewPermissions, address[] memory deletePermissions) public {\r\n\r\n    require(msg.sender != address(0x0));\r\n    require(bytes(_fileHash).length > 0);\r\n    require(bytes(_fileType).length > 0);\r\n    require(bytes(_fileName).length > 0);\r\n    require(bytes(_fileDescription).length > 0);\r\n    require(_fileSize > 0);\r\n\r\n    fileCount ++;\r\n\r\n    files[fileCount] = File(fileCount, _fileHash, _fileSize, _fileType, _fileName, _fileDescription, now, isPublic, isPermanent, msg.sender);\r\n\r\n    setAllowances(fileCount, viewPermissions, deletePermissions);\r\n\r\n    emit FileUploaded(fileCount, _fileHash, _fileSize, _fileType, _fileName, _fileDescription, now, isPublic, isPermanent, msg.sender);\r\n  }\r\n\r\n  function deleteFile(uint _id) public _fileIdExists(_id) _deletable(_id) _deletePerm(_id, msg.sender) {\r\n\r\n    File memory file = files[_id];\r\n    \r\n    delete files[_id];\r\n\r\n    emit FileDeleted(_id, file.fileHash, file.fileSize, file.fileType, file.fileName, file.fileDescription, file.uploadTime, file.isPublic, file.isPermanent, file.uploader, now);\r\n  }\r\n\r\n  function setAllowances(uint _id, address[] memory _viewPermissions, address[] memory _deletePermissions) private {\r\n    \r\n    for (uint i = 0; i < _viewPermissions.length; i++) {\r\n      \r\n      address account = _viewPermissions[i];\r\n\r\n      allowances[_id][account].viewPerm = true; \r\n    }\r\n\r\n    for (uint i = 0; i < _deletePermissions.length; i++) {\r\n      \r\n      address account = _deletePermissions[i];\r\n\r\n      allowances[_id][account].deletePerm = true;\r\n    }\r\n  }\r\n\r\n  modifier _deletePerm(uint _id, address _sender) {\r\n    \r\n    require (\r\n      _sender == files[_id].uploader\r\n      ||\r\n      allowances[_id][_sender].deletePerm == true\r\n    );\r\n    _;\r\n  }\r\n\r\n  modifier _deletable(uint _id) {\r\n\r\n    require(!files[_id].isPermanent);\r\n    _;\r\n  }\r\n\r\n  modifier _fileIdExists(uint _id) {\r\n    require(_id > 0 && _id <= fileCount);\r\n    _;\r\n  }\r\n\r\n}",
  "sourcePath": "C:/Users/Furkan/Desktop/Blockchain/Youtube/Dapp Development/Dstorage/src/contracts/DStorage.sol",
  "compiler": {
    "name": "solc",
    "version": "0.5.16+commit.9c3226ce.Emscripten.clang"
  },
  "schemaVersion": "3.2.3",
  "updatedAt": "2022-03-26T17:10:58.977Z",
  "networkType": "ethereum",
  "devdoc": {
    "methods": {}
  },
  "userdoc": {
    "methods": {}
  }
}